{"contracts/CrowdFunding.sol":{"CrowdFunding":{"abi":[{"inputs":[{"internalType":"address","name":"_token","type":"address"}],"stateMutability":"nonpayable","type":"constructor"},{"inputs":[{"internalType":"uint256","name":"_id","type":"uint256"}],"name":"cancelContribution","outputs":[],"stateMutability":"nonpayable","type":"function"},{"inputs":[{"internalType":"uint256","name":"_id","type":"uint256"},{"internalType":"uint256","name":"_amount","type":"uint256"}],"name":"contribute","outputs":[],"stateMutability":"nonpayable","type":"function"},{"inputs":[{"internalType":"uint256","name":"_goal","type":"uint256"},{"internalType":"uint256","name":"_duration","type":"uint256"}],"name":"createCampaign","outputs":[],"stateMutability":"nonpayable","type":"function"},{"inputs":[{"internalType":"uint256","name":"_id","type":"uint256"}],"name":"getCampaign","outputs":[{"internalType":"uint256","name":"remainingTime","type":"uint256"},{"internalType":"uint256","name":"goal","type":"uint256"},{"internalType":"uint256","name":"totalFunds","type":"uint256"}],"stateMutability":"view","type":"function"},{"inputs":[{"internalType":"uint256","name":"_id","type":"uint256"},{"internalType":"address","name":"_contributor","type":"address"}],"name":"getContribution","outputs":[{"internalType":"uint256","name":"","type":"uint256"}],"stateMutability":"view","type":"function"},{"inputs":[{"internalType":"uint256","name":"_id","type":"uint256"}],"name":"refund","outputs":[],"stateMutability":"nonpayable","type":"function"},{"inputs":[],"name":"token","outputs":[{"internalType":"contract IERC20","name":"","type":"address"}],"stateMutability":"view","type":"function"},{"inputs":[{"internalType":"uint256","name":"_id","type":"uint256"}],"name":"withdrawFunds","outputs":[],"stateMutability":"nonpayable","type":"function"}],"devdoc":{"kind":"dev","methods":{"cancelContribution(uint256)":{"details":"cancelContribution allows anyone to cancel their contribution","params":{"_id":"the id of the campaign"}},"contribute(uint256,uint256)":{"details":"contribute allows anyone to contribute to a campaign","params":{"_amount":"the amount of tokens to contribute","_id":"the id of the campaign"}},"createCampaign(uint256,uint256)":{"params":{"_duration":"the duration of the campaign in seconds","_goal":"amount of funds to be raised in USD"}},"getCampaign(uint256)":{"params":{"_id":"the id of the campaign"},"returns":{"goal":"the goal of the campaign (in USD)","remainingTime":"the time (in seconds) when the campaign ends","totalFunds":"total funds (in USD) raised by the campaign"}},"getContribution(uint256,address)":{"params":{"_contributor":"the address of the contributor","_id":"the id of the campaign"}},"refund(uint256)":{"params":{"_id":"the id of the campaign"}},"withdrawFunds(uint256)":{"params":{"_id":"the id of the campaign"}}},"version":1},"evm":{"bytecode":{"linkReferences":{},"object":"608060405234801561001057600080fd5b5060405161027738038061027783398101604081905261002f91610054565b600080546001600160a01b0319166001600160a01b0392909216919091179055610084565b60006020828403121561006657600080fd5b81516001600160a01b038116811461007d57600080fd5b9392505050565b6101e4806100936000396000f3fe608060405234801561001057600080fd5b50600436106100885760003560e01c80635598f8cc1161005b5780635598f8cc146100b25780638c590917146100a0578063e081dbf9146100ea578063fc0c546a1461010e57600080fd5b8063155dd5ee1461008d57806322502268146100a0578063278ecde11461008d578063368e571b1461008d575b600080fd5b61009e61009b366004610153565b50565b005b61009e6100ae36600461016c565b5050565b6100ca6100c0366004610153565b5060009081908190565b604080519384526020840192909252908201526060015b60405180910390f35b6101006100f836600461018e565b600092915050565b6040519081526020016100e1565b60005461012e9073ffffffffffffffffffffffffffffffffffffffff1681565b60405173ffffffffffffffffffffffffffffffffffffffff90911681526020016100e1565b60006020828403121561016557600080fd5b5035919050565b6000806040838503121561017f57600080fd5b50508035926020909101359150565b600080604083850312156101a157600080fd5b82359150602083013573ffffffffffffffffffffffffffffffffffffffff811681146101cc57600080fd5b80915050925092905056fea164736f6c6343000814000a","opcodes":"PUSH1 0x80 PUSH1 0x40 MSTORE CALLVALUE DUP1 ISZERO PUSH2 0x10 JUMPI PUSH1 0x0 DUP1 REVERT JUMPDEST POP PUSH1 0x40 MLOAD PUSH2 0x277 CODESIZE SUB DUP1 PUSH2 0x277 DUP4 CODECOPY DUP2 ADD PUSH1 0x40 DUP2 SWAP1 MSTORE PUSH2 0x2F SWAP2 PUSH2 0x54 JUMP JUMPDEST PUSH1 0x0 DUP1 SLOAD PUSH1 0x1 PUSH1 0x1 PUSH1 0xA0 SHL SUB NOT AND PUSH1 0x1 PUSH1 0x1 PUSH1 0xA0 SHL SUB SWAP3 SWAP1 SWAP3 AND SWAP2 SWAP1 SWAP2 OR SWAP1 SSTORE PUSH2 0x84 JUMP JUMPDEST PUSH1 0x0 PUSH1 0x20 DUP3 DUP5 SUB SLT ISZERO PUSH2 0x66 JUMPI PUSH1 0x0 DUP1 REVERT JUMPDEST DUP2 MLOAD PUSH1 0x1 PUSH1 0x1 PUSH1 0xA0 SHL SUB DUP2 AND DUP2 EQ PUSH2 0x7D JUMPI PUSH1 0x0 DUP1 REVERT JUMPDEST SWAP4 SWAP3 POP POP POP JUMP JUMPDEST PUSH2 0x1E4 DUP1 PUSH2 0x93 PUSH1 0x0 CODECOPY PUSH1 0x0 RETURN INVALID PUSH1 0x80 PUSH1 0x40 MSTORE CALLVALUE DUP1 ISZERO PUSH2 0x10 JUMPI PUSH1 0x0 DUP1 REVERT JUMPDEST POP PUSH1 0x4 CALLDATASIZE LT PUSH2 0x88 JUMPI PUSH1 0x0 CALLDATALOAD PUSH1 0xE0 SHR DUP1 PUSH4 0x5598F8CC GT PUSH2 0x5B JUMPI DUP1 PUSH4 0x5598F8CC EQ PUSH2 0xB2 JUMPI DUP1 PUSH4 0x8C590917 EQ PUSH2 0xA0 JUMPI DUP1 PUSH4 0xE081DBF9 EQ PUSH2 0xEA JUMPI DUP1 PUSH4 0xFC0C546A EQ PUSH2 0x10E JUMPI PUSH1 0x0 DUP1 REVERT JUMPDEST DUP1 PUSH4 0x155DD5EE EQ PUSH2 0x8D JUMPI DUP1 PUSH4 0x22502268 EQ PUSH2 0xA0 JUMPI DUP1 PUSH4 0x278ECDE1 EQ PUSH2 0x8D JUMPI DUP1 PUSH4 0x368E571B EQ PUSH2 0x8D JUMPI JUMPDEST PUSH1 0x0 DUP1 REVERT JUMPDEST PUSH2 0x9E PUSH2 0x9B CALLDATASIZE PUSH1 0x4 PUSH2 0x153 JUMP JUMPDEST POP JUMP JUMPDEST STOP JUMPDEST PUSH2 0x9E PUSH2 0xAE CALLDATASIZE PUSH1 0x4 PUSH2 0x16C JUMP JUMPDEST POP POP JUMP JUMPDEST PUSH2 0xCA PUSH2 0xC0 CALLDATASIZE PUSH1 0x4 PUSH2 0x153 JUMP JUMPDEST POP PUSH1 0x0 SWAP1 DUP2 SWAP1 DUP2 SWAP1 JUMP JUMPDEST PUSH1 0x40 DUP1 MLOAD SWAP4 DUP5 MSTORE PUSH1 0x20 DUP5 ADD SWAP3 SWAP1 SWAP3 MSTORE SWAP1 DUP3 ADD MSTORE PUSH1 0x60 ADD JUMPDEST PUSH1 0x40 MLOAD DUP1 SWAP2 SUB SWAP1 RETURN JUMPDEST PUSH2 0x100 PUSH2 0xF8 CALLDATASIZE PUSH1 0x4 PUSH2 0x18E JUMP JUMPDEST PUSH1 0x0 SWAP3 SWAP2 POP POP JUMP JUMPDEST PUSH1 0x40 MLOAD SWAP1 DUP2 MSTORE PUSH1 0x20 ADD PUSH2 0xE1 JUMP JUMPDEST PUSH1 0x0 SLOAD PUSH2 0x12E SWAP1 PUSH20 0xFFFFFFFFFFFFFFFFFFFFFFFFFFFFFFFFFFFFFFFF AND DUP2 JUMP JUMPDEST PUSH1 0x40 MLOAD PUSH20 0xFFFFFFFFFFFFFFFFFFFFFFFFFFFFFFFFFFFFFFFF SWAP1 SWAP2 AND DUP2 MSTORE PUSH1 0x20 ADD PUSH2 0xE1 JUMP JUMPDEST PUSH1 0x0 PUSH1 0x20 DUP3 DUP5 SUB SLT ISZERO PUSH2 0x165 JUMPI PUSH1 0x0 DUP1 REVERT JUMPDEST POP CALLDATALOAD SWAP2 SWAP1 POP JUMP JUMPDEST PUSH1 0x0 DUP1 PUSH1 0x40 DUP4 DUP6 SUB SLT ISZERO PUSH2 0x17F JUMPI PUSH1 0x0 DUP1 REVERT JUMPDEST POP POP DUP1 CALLDATALOAD SWAP3 PUSH1 0x20 SWAP1 SWAP2 ADD CALLDATALOAD SWAP2 POP JUMP JUMPDEST PUSH1 0x0 DUP1 PUSH1 0x40 DUP4 DUP6 SUB SLT ISZERO PUSH2 0x1A1 JUMPI PUSH1 0x0 DUP1 REVERT JUMPDEST DUP3 CALLDATALOAD SWAP2 POP PUSH1 0x20 DUP4 ADD CALLDATALOAD PUSH20 0xFFFFFFFFFFFFFFFFFFFFFFFFFFFFFFFFFFFFFFFF DUP2 AND DUP2 EQ PUSH2 0x1CC JUMPI PUSH1 0x0 DUP1 REVERT JUMPDEST DUP1 SWAP2 POP POP SWAP3 POP SWAP3 SWAP1 POP JUMP INVALID LOG1 PUSH5 0x736F6C6343 STOP ADDMOD EQ STOP EXP "},"gasEstimates":{"creation":{"codeDepositCost":"96800","executionCost":"infinite","totalCost":"infinite"},"external":{"cancelContribution(uint256)":"278","contribute(uint256,uint256)":"258","createCampaign(uint256,uint256)":"259","getCampaign(uint256)":"317","getContribution(uint256,address)":"388","refund(uint256)":"256","token()":"2379","withdrawFunds(uint256)":"212"}},"methodIdentifiers":{"cancelContribution(uint256)":"368e571b","contribute(uint256,uint256)":"8c590917","createCampaign(uint256,uint256)":"22502268","getCampaign(uint256)":"5598f8cc","getContribution(uint256,address)":"e081dbf9","refund(uint256)":"278ecde1","token()":"fc0c546a","withdrawFunds(uint256)":"155dd5ee"}},"storageLayout":{"storage":[{"astId":939,"contract":"contracts/CrowdFunding.sol:CrowdFunding","label":"token","offset":0,"slot":"0","type":"t_contract(IERC20)877"}],"types":{"t_contract(IERC20)877":{"encoding":"inplace","label":"contract IERC20","numberOfBytes":"20"}}},"userdoc":{"kind":"user","methods":{"cancelContribution(uint256)":{"notice":"This function allows any donor to cancel their contribution. It should revert  if no donations have been made by the caller for the particular campaign."},"contribute(uint256,uint256)":{"notice":"This function allows anyone to create a contribution of amount tokens to a  campaign specified by the id . This function must revert if the campaign with id does not exist."},"createCampaign(uint256,uint256)":{"notice":"This function allows anyone to create a campaign of goal amount (in USD)  with the time duration of duration (in seconds). As soon as the campaign  is created, it is considered to be active. Each campaign must be associated  with an id , starting from 1 and increasing one at a time.createCampaign allows anyone to create a campaign"},"getCampaign(uint256)":{"notice":"This function returns the remaining time, the goal, and the total funds collected (in USD).getCampaign returns details about a campaign"},"getContribution(uint256,address)":{"notice":"This function allows anyone to view the contributions made by contributor for the id campaign (in USD).getContribution returns the contribution of a contributor in USD"},"refund(uint256)":{"notice":"This allows the donors to get their funds back if the campaign has failed.  It should revert if no donations were made to this campaign by the caller.refund allows the contributors to get a refund if the campaign failed"},"withdrawFunds(uint256)":{"notice":"This function allows the creator of the campaign id to collect all the contributions. This  function must revert if the duration of the campaign has not passed, or / and the goal has not been met.withdrawFunds allows the creator of the campaign to withdraw the funds"}},"version":1}}}}